:100000000C942A000C9447000C9447000C94470071
:100010000C941E030C9447000C9447000C94BC02F3
:100020000C9447000C9447000C9464020C94470015
:100030000C9447000C9447000C9447000C94470024
:100040000C9447000C9447000C9447000C94470014
:100050000C94470011241FBECFE5D8E0DEBFCDBF12
:1000600012E0A0E6B0E0E6E7F9E102C005900D92EB
:10007000A838B107D9F722E0A8E8B2E001C01D9284
:10008000A93AB207E1F70E9437060C94B90C0C9418
:100090000000413091F018F0423029F10895E82F26
:1000A000F0E0EE0FFF1FE05BFD4F0190F081E02DCF
:1000B0008081609568236083089590E0880F991F80
:1000C000FC01E05BFD4F0190F081E02D3081262F97
:1000D000209523232083885B9D4FDC01ED91FC91CB
:1000E0008081682BE8CFE82FF0E0EE0FFF1FE05B88
:1000F000FD4F0190F081E02DF3CF442319F0413002
:1001000079F00895E82FF0E0EE0FFF1FE85BFD4F58
:100110000190F081E02D80816095682360830895CF
:10012000E82FF0E0EE0FFF1FE85BFD4F0190F0813C
:10013000E02D8081682BF2CFE82FF0E0EE0FFF1F5B
:10014000E85BFD4F0190F081E02D8081682760839E
:100150000895E82FF0E0EE0FFF1FE05CFD4F0190E7
:10016000F081E02D8081682319F4FA01108208954E
:1001700081E0FA018083089512BE83B79091A802AE
:10018000892B83BF0895813081F018F08230D1F03F
:1001900008956836710529F4433318F0425360E638
:1001A00070E063BF4093A80208956836710529F492
:1001B000433318F0425360E670E07FBD6EBD40935C
:1001C000A70208956836710529F4433318F04253A5
:1001D00060E670E065BD4093A6020895CF92DF927D
:1001E000EF92FF926A017B01813019F140F0823079
:1001F00009F444C0FF90EF90DF90CF9008958AEF0C
:100200008CBF0E94BC0081E0C81AD108E108F10847
:100210008FEFC816D806E806F80621F483B7887F62
:1002200083BFE8CF08B601FEFDCF88B7826088BFE4
:10023000EACF8AEF90E09BBD8ABD1DBC1CBC8EB589
:100240009FB52091A702822B9FBD8EBD81E0C81A69
:10025000D108E108F1088FEFC816D806E806F806BD
:1002600031F48EB59FB5887F9FBD8EBDC3CF08B6D4
:1002700004FEFDCF88B7806188BFE8CF8AEF83BDD9
:1002800014BC85B59091A602892B85BD81E0C81A62
:10029000D108E108F1088FEFC816D806E806F8067D
:1002A00021F485B5887F85BDA5CF08B607FEFDCFB3
:1002B00088B7806888BFEACF0F938130D9F020F0EB
:1002C0008230B9F10F9108958AEF8CBF4093A2025A
:1002D0005093A3026093A4027093A50230939902F5
:1002E000209398020093A80289B7826089BF0F917A
:1002F0000C94BC008AEF90E09BBD8ABD40939E02A7
:1003000050939F026093A0027093A10230939702D2
:10031000209396020093A70289B7806189BF1DBC14
:100320001CBC8EB59FB52091A702822B9FBD8EBDB0
:10033000C9CF8AEF83BD40939A0250939B0260938A
:100340009C0270939D023093950220939402009337
:10035000A60289B7806889BF14BC85B59091A602B2
:10036000892B85BDAFCF813031F018F0823039F064
:1003700008956CBF089570E07BBD6ABD089563BDAC
:100380000895813031F018F0823069F008950C94AE
:10039000BC001DBC1CBC8EB59FB52091A702822B52
:1003A0009FBD8EBD089514BC85B59091A602892B82
:1003B00085BD0895813041F018F0823059F00895DC
:1003C00083B7887F83BF08958EB59FB5887F9FBD13
:1003D0008EBD089585B5887F85BD0895AF92BF9283
:1003E000CF92DF92EF92FF920F931F93CF93DF9301
:1003F00000D000D000D0CDB7DEB75C018B01FE018C
:10040000319686E0DF011D928A95E9F78EB59FB59A
:1004100080649FBD8EBD1DBC1CBC8EB59FB5209158
:10042000A702822B9FBD8EBD9E01295F3F4F08B65C
:1004300005FEFDCF86B597B58193919388B780620D
:1004400088BF8EB59FB5B0E48B279FBD8EBD2E179C
:100450003F0769F78EB59FB5887F9FBD8EBD8981A7
:100460009A81CD80DE80C81AD90AF12CE12C2B812B
:100470003C81281B390BA4E6B0E00E94C907A70104
:1004800096010E94A707F501208360E970ED83E0E3
:1004900090E0A70196010E94A707D8012D933D93F4
:1004A0004D935C93139726960FB6F894DEBF0FBE5C
:1004B000CDBFDF91CF911F910F91FF90EF90DF9013
:1004C000CF90BF90AF9008951F920F920FB60F92EA
:1004D00011242F933F934F935F936F937F938F9349
:1004E0009F93AF93BF93EF93FF938091900290916E
:1004F0009102A0919202B09193020196A11DB11DAB
:100500008093900290939102A0939202B0939302F1
:100510004091A2025091A3026091A4027091A502A1
:1005200084179507A607B707B1F4E0919802F091F8
:100530009902309781F0892B8A2B8B2B61F40995D6
:1005400010929002109291021092920210929302D5
:1005500083B7887F83BFFF91EF91BF91AF919F9148
:100560008F917F916F915F914F913F912F910F905C
:100570000FBE0F901F9018951F920F920FB60F92FB
:1005800011242F933F934F935F936F937F938F9398
:100590009F93AF93BF93EF93FF9380918C029091C1
:1005A0008D02A0918E02B0918F020196A11DB11D06
:1005B00080938C0290938D02A0938E02B0938F0251
:1005C0004091A2025091A3026091A4027091A502F1
:1005D00084179507A607B70701F5E0919602F091F9
:1005E00097023097D1F080919E0290919F02A09146
:1005F000A002B091A102892B8A2B8B2B71F4099553
:1006000010928C0210928D0210928E0210928F0224
:100610008EB59FB5887F9FBD8EBDFF91EF91BF9135
:10062000AF919F918F917F916F915F914F913F918A
:100630002F910F900FBE0F901F9018951F920F9241
:100640000FB60F9211242F933F934F935F936F93A5
:100650007F938F939F93AF93BF93EF93FF9380917B
:10066000880290918902A0918A02B0918B02019632
:10067000A11DB11D8093880290938902A0938A02E4
:10068000B0938B0240919A0250919B0260919C0220
:1006900070919D0284179507A607B707B1F4E09102
:1006A0009402F0919502309781F0892B8A2B8B2B45
:1006B00061F40995109288021092890210928A02C0
:1006C00010928B0285B5887F85BDFF91EF91BF9118
:1006D000AF919F918F917F916F915F914F913F91DA
:1006E0002F910F900FBE0F901F901895CF93C82F8A
:1006F000482F417061E080E00E947D00C1FB4427EB
:1007000040F962E080E00E947D00C2FB442740F98E
:1007100064E080E00E947D00C3FB442740F968E06C
:1007200080E00E947D00C4FB442740F960E180E046
:100730000E947D00C5FB442740F960E280E00E94F2
:100740007D00C6FB442740F960E480E00E947D0004
:100750004C2F441F4427441F60E880E00E947D0026
:1007600040E061E082E00E947D0040E062E082E0E3
:100770000E947D0041E064E082E00E947D008FE104
:100780009EE40197F1F700C0000040E064E082E0E1
:100790000E947D008FE19EE40197F1F700C0000008
:1007A000CF910895CF93C82F482F417061E080E02A
:1007B0000E947D00C1FB442740F962E080E00E9476
:1007C0007D00C2FB442740F964E080E00E947D0088
:1007D000C3FB442740F968E080E00E947D00C4FB31
:1007E000442740F960E180E00E947D00C5FB44277A
:1007F00040F960E280E00E947D00C6FB442740F99A
:1008000060E480E00E947D004C2F441F4427441F79
:1008100060E880E00E947D0041E061E082E00E94AB
:100820007D0040E062E082E00E947D0041E064E003
:1008300082E00E947D008FE19EE40197F1F700C005
:10084000000040E064E082E00E947D008FE19EE4D1
:100850000197F1F700C00000CF91089542E06FE3E7
:1008600082E00E94490042E06FEF80E00E94490070
:1008700041E068E382E00E947D002FEF89EF90E085
:10088000215080409040E1F700C000008EE30E94BC
:10089000760380E40E94760388EB0E94760380EC66
:1008A0000E9476038FE30C947603CF93DF9341E0AD
:1008B00060E382E00E947D00C8EB8C2F0E947603EB
:1008C000D0E480E00E94D203D150D9F7CF5FC03C82
:1008D000A1F780E40E94760388EBDF91CF910C941E
:1008E00076032F923F924F925F926F927F928F92F8
:1008F0009F92AF92BF92CF92DF92EF92FF920F93AF
:100900001F93CF93DF93CDB7DEB729970FB6F89437
:10091000DEBF0FBECDBF8A8369835F834E83082FFE
:1009200010E0480128EB820E911C603408F071C081
:1009300041E060E182E00E947D0040E060E282E010
:100940000E947D008981805C0E94760380E4398169
:10095000831B89838A8188548A830E94760320E8D6
:100960002003C001219F900D1124FC01E550FC4F94
:10097000FD83EC83D12CC12C512C8FE3482EF12C1C
:10098000E12C80E0B12CA12C91E0980F9B832E806C
:100990003F80280E311CF10180818823F9F0FB8112
:1009A00025E0F29FC001112439813817190609F09A
:1009B00084F460E182E00E949C0060E282E00E9498
:1009C0009C0080E40E9476038A810E94760348ECB2
:1009D00049838C819D818E159F0560F580E4299661
:1009E0000FB6F894DEBF0FBECDBFDF91CF911F9140
:1009F0000F91FF90EF90DF90CF90BF90AF909F90BE
:100A00008F907F906F905F904F903F902F900C94BD
:100A1000760340E060E182E00E947D0041E060E218
:100A200082E00E947D0089810E94760380E84981EE
:100A3000841B8FCFF1018081803209F413C18701BB
:100A40000F5F1F4F20E030E040E05FE36D2D7C2D15
:100A5000852D942D0E94D9073B01898798870E9494
:100A6000B708F0E86F9FB00111240617170709F5C2
:100A700080E40E94760360E182E00E949C0060E2D4
:100A800082E00E949C00C501B4010E94E6082D2D61
:100A90003C2D452D542D0E94D9070E94B708862F62
:100AA0000E9476032C813D812017310738F47801AC
:100AB00058C06D2C7C2C598648868701F1018081B5
:100AC0006801F12CE12C803209F051C0F101208144
:100AD0002052330BF5E0F29FC001F39F900D1124DB
:100AE000805A9F4FFC01EE0DFF1D80810E94D203B2
:100AF0002FEFC21AD20AC6018F739927892B29F5C5
:100B000060E182E00E949C0060E282E00E949C0022
:100B100080E40E947603C501B4010E94E6089301B7
:100B2000498558850E94D9070E94B708862F0E94E0
:100B3000760320E030E040E05FE3B30189859885EB
:100B40000E94D9073B01898798873FEFE31AF30A90
:100B500045E0E416F10409F0B9CF780185E0E80E2C
:100B6000F11CD62CC72C598448848B810DCFF10100
:100B700020812052330BF5E0F29FC001F39F900DCE
:100B80001124805A9F4FFC01EE0DFF1D80810E94B1
:100B9000D2032FEFC21AD20AC6018F739927892B6D
:100BA00029F560E182E00E949C0060E282E00E9400
:100BB0009C0080E40E947603C501B4010E94E6080F
:100BC0009301498558850E94D9070E94B708862F4E
:100BD0000E94760320E030E040E05FE3B3018985C6
:100BE00098850E94D9073B01898798873FEFE31AD0
:100BF000F30A45E0E416F10409F0B9CF80E00E9461
:100C0000D203780186E0E80EF11C095F1F4F0F73D5
:100C10001127012B09F0A5CF60E182E00E949C0022
:100C200060E282E00E949C0080E40E947603C5019D
:100C3000B4010E94E6089301498558850E94D907AE
:100C40000E94B708862F0E94760320E030E040E043
:100C50005FE3B301898598850E94D9073B018987A5
:100C600098877FCF6D2C7C2C598648867ACFCF937E
:100C7000DF93CDB7DEB7C253D1400FB6F894DEBFD5
:100C80000FBECDBF42E068E081E00E94490040E035
:100C900060E483E00E94490043E068E670E080E0A1
:100CA0000E94C30043E070E060E081E00E94C30066
:100CB00080E00E94C10160E880E00E94B3010E94D0
:100CC0002E040E94550438E5832E32E0932E7E01D7
:100CD00029ECE20EF11C0BE512E06E0185E6C80E70
:100CE000D11CCE0101965C010E9455049FEF21EEBC
:100CF00084E0915020408040E1F700C00000BE0138
:100D0000635D7E4FCE018F5C9E4F0E94EE019FEF90
:100D100023ED80E3915020408040E1F700C00000C7
:100D2000C35DDE4F688179818A819B81CD52D1403C
:100D30000E94E6089B01AC0160E070E080E89FE360
:100D40000E94450820E034E244E759E40E94740917
:100D50002B013C01CF5CDE4F8881C153D1401F92F3
:100D60008F939F928F92FF92EF920E94E109C05D54
:100D7000DE4F8881C053D1408F93C15DDE4F8881A3
:100D8000CF52D1408F93C25DDE4F8881CE52D14089
:100D90008F93C35DDE4F8881CD52D1408F931F93D7
:100DA0000F93DF92CF920E94E109C301B2010E942A
:100DB000B7089F938F937F936F931F930F93BF9267
:100DC000AF920E94E1094FE552E060E080E00E94AE
:100DD0007104A60160E480E00E9471044AE652E0DA
:100DE00064E680E00E9471044DE652E060E081E03C
:100DF0000E947104A70160E481E00E94710449E748
:100E000052E06DE481E00E9471044BE752E060E043
:100E100082E00E947104A50160E482E00E947104F6
:100E200041E852E064E682E00E947104CF5CDE4F4C
:100E30008881C153D1406AE00E949B07282E2AE096
:100E4000422E481A642C660C660C640C0FB6F8949B
:100E5000DEBF0FBECDBF712C95E0960DCE5CDE4F90
:100E60009883C253D14077FC3FCF672D512C10C0DF
:100E700044E852E087E00E9471042FEF89E698E190
:100E8000215080409040E1F700C000005394632D52
:100E900095E0392E360E5410EBCFCE5CDE4F388005
:100EA000C253D140370C46E852E0562C570C652D02
:100EB00086E00E94710446E852E0652D87E00E94BA
:100EC00071042FEF89E698E1215080409040E1F7CE
:100ED00000C00000512C52101BC087E3582E570C45
:100EE00046E852E0652D86E00E94710446E852E033
:100EF000652D87E00E9471048FEF99E628E181500B
:100F000090402040E1F700C0000081E4780EABCFB4
:100F100044E852E0632D85E00E94710425E0320E22
:100F20008FEF99E628E1815090402040E1F700C022
:100F300000005394D0CF991B79E004C0991F9617F5
:100F400008F0961B881F7A95C9F780950895A1E24D
:100F50001A2EAA1BBB1BFD010DC0AA1FBB1FEE1F33
:100F6000FF1FA217B307E407F50720F0A21BB30B7E
:100F7000E40BF50B661F771F881F991F1A9469F7FA
:100F800060957095809590959B01AC01BD01CF0156
:100F90000895A29FB001B39FC001A39F700D811D52
:100FA0001124911DB29F700D811D1124911D089572
:100FB0005058BB27AA270E94F0070C943A090E94B8
:100FC0002C0938F00E94330920F039F49F3F19F4BE
:100FD00026F40C9429090EF4E095E7FB0C94230900
:100FE000E92F0E944B0958F3BA1762077307840769
:100FF000950720F079F4A6F50C946D090EF4E095B0
:101000000B2EBA2FA02D0B01B90190010C01CA01C2
:10101000A0011124FF27591B99F0593F50F4503E6D
:1010200068F11A16F040A22F232F342F4427585F5F
:10103000F3CF469537952795A795F0405395C9F777
:101040007EF41F16BA0B620B730B840BBAF091502F
:10105000A1F0FF0FBB1F661F771F881FC2F70EC0CE
:10106000BA0F621F731F841F48F4879577956795A1
:10107000B795F7959E3F08F0B0CF9395880F08F08D
:101080009927EE0F9795879508950E9459080C941B
:101090003A090E94330958F00E942C0940F029F4C3
:1010A0005F3F29F00C94230951110C946E090C94A4
:1010B00029090E944B0968F39923B1F3552391F351
:1010C000951B550BBB27AA2762177307840738F0B7
:1010D0009F5F5F4F220F331F441FAA1FA9F335D014
:1010E0000E2E3AF0E0E832D091505040E695001CC8
:1010F000CAF72BD0FE2F29D0660F771F881FBB1F82
:10110000261737074807AB07B0E809F0BB0B802D5F
:10111000BF01FF2793585F4F3AF09E3F510578F08B
:101120000C9423090C946E095F3FE4F3983ED4F3CA
:10113000869577956795B795F7959F5FC9F7880F5F
:10114000911D9695879597F90895E1E0660F771FB1
:10115000881FBB1F621773078407BA0720F0621B42
:10116000730B840BBA0BEE1F88F7E09508950E946D
:10117000530988F09F5798F0B92F9927B751B0F0CD
:10118000E1F0660F771F881F991F1AF0BA95C9F70B
:1011900014C0B13091F00E946D09B1E008950C9433
:1011A0006D09672F782F8827B85F39F0B93FCCF3E6
:1011B000869577956795B395D9F73EF49095809588
:1011C000709561957F4F8F4F9F4F0895E89409C0A8
:1011D00097FB3EF490958095709561957F4F8F4F6A
:1011E0009F4F9923A9F0F92F96E9BB279395F69580
:1011F000879577956795B795F111F8CFFAF4BB0FFE
:1012000011F460FF1BC06F5F7F4F8F4F9F4F16C061
:10121000882311F096E911C0772321F09EE8872FEB
:10122000762F05C0662371F096E8862F70E060E0A7
:101230002AF09A95660F771F881FDAF7880F969520
:10124000879597F9089597F99F6780E870E060E0C7
:1012500008959FEF80EC089500240A94161617064F
:1012600018060906089500240A9412161306140697
:1012700005060895092E0394000C11F4882352F0FA
:10128000BB0F40F4BF2B11F460FF04C06F5F7F4FB2
:101290008F4F9F4F089557FD9058440F551F59F099
:1012A0005F3F71F04795880F97FB991F61F09F3F53
:1012B00079F087950895121613061406551FF2CF7C
:1012C0004695F1DF08C0161617061806991FF1CFCC
:1012D00086957105610508940895E894BB276627F3
:1012E0007727CB0197F908950E9487090C943A0952
:1012F0000E942C0938F00E94330920F0952311F048
:101300000C9423090C94290911240C946E090E9451
:101310004B0970F3959FC1F3950F50E0551F629FE5
:10132000F001729FBB27F00DB11D639FAA27F00D3E
:10133000B11DAA1F649F6627B00DA11D661F829F65
:101340002227B00DA11D621F739FB00DA11D621F4A
:10135000839FA00D611D221F749F3327A00D611D67
:10136000231F849F600D211D822F762F6A2F112449
:101370009F5750409AF0F1F088234AF0EE0FFF1F7C
:10138000BB1F661F771F881F91505040A9F79E3FD3
:10139000510580F00C9423090C946E095F3FE4F32F
:1013A000983ED4F3869577956795B795F795E79529
:1013B0009F5FC1F7FE2B880F911D9695879597F932
:1013C0000895AEE0B0E0E7EEF9E00C94900C0D89E2
:1013D0001E8986E08C831A8309838FEF9FE79E83A3
:1013E0008D83AE01475E5F4F6F89788DCE01019688
:1013F0000E94040A2F813885020F131FF801108202
:101400002E96E4E00C94AC0CABE0B0E0EAE0FAE03D
:101410000C94820C7C013B018A01FC01178216822C
:10142000838181FFC8C1CE0101965C01F7019381E0
:10143000F30193FD859193FF81913F01882309F486
:1014400053C1853239F493FD859193FF81913F011A
:10145000853229F4B70190E00E94F40BE7CF912C7C
:10146000212C312CFFE1F31538F08B3211F190F47F
:10147000803209F1833229F137FC3CC020ED280F7E
:101480002A3050F536FE20C08AE0989E200D1124A7
:10149000922E06C08D3291F0803371F7689430F847
:1014A000F30193FD859193FF81913F018111DACF83
:1014B00021C0689431F8689432F8F2CF689433F818
:1014C000EFCF689434F8ECCFEAE02E9E200D112483
:1014D000222E689435F8E4CF8E3229F436FC04C10C
:1014E000689436F8DDCF8C3619F4689437F8D8CF85
:1014F0008836B1F2982F9F7D95549330E0F0833673
:10150000A1F18337C1F1833509F063C02801F2E00E
:101510004F0E511CF801C080D180692D70E036FC5F
:1015200002C06FEF7FEFC6010E94DE0B4C01689492
:1015300037F882010AC00C5F1F4FFFE3F98388244C
:101540008394912C6501E89437F833FE2DC0522C1A
:101550008114910471F5552009F468CFB70180E238
:1015600090E00E94F40B5A94F6CFF80180818983B1
:101570000E5F1F4FE4CF2801F2E04F0E511CF8011F
:10158000C080D180692D70E036FC02C06FEF7FEF24
:10159000C6010E94E90B4C018201D5CFB70180E260
:1015A00090E00E94F40B2A942814190409F0B0F773
:1015B000CECFF60137FC859137FE81916F01B701DF
:1015C00090E00E94F40B51105A94F1E08F1A9108A8
:1015D000BFCF843619F0893609F077C0F80137FE9D
:1015E0006BC060817181828193810C5F1F4FF32DED
:1015F000FF763F2E97FF09C0909580957095619575
:101600007F4F8F4F9F4F689437F82AE030E0A50155
:101610000E94240CC82ECA188C2C432C36FE0CC0F9
:10162000E89440F8C91440F434FE05C032FC03C00D
:10163000F32DFE7E4F2E892C44FE95C0FE01EC0D4D
:10164000F11D8081803309F087C0242D297E422E30
:10165000842D8870582E43FC95C040FE8FC09C2C72
:10166000821418F42C0C922C981844FE91C0B701E7
:1016700080E390E00E94F40B42FE09C088E790E00E
:1016800041FE02C088E590E0B7010E94F40BC91446
:1016900008F48AC0CA94D12C9FEFC91AD90ACA0C7F
:1016A000DB1CF60182916F01B70190E00E94F40B00
:1016B000AC14BD04B1F74FCF60817181072E000CCF
:1016C000880B990B0E5F1F4F92CFD32CE894D4F860
:1016D0002AE030E0853739F1232D297FD22E8F364D
:1016E00001F148F48835A9F0F701868197812B969E
:1016F000E2E10C949E0C803749F08837A9F7D4FEBC
:1017000002C06894D2F820E130E00DC06894D4F8AB
:10171000F6CF34FE03C0822F8660D82E20E132E05F
:1017200002C028E030E0F801D7FE0FC0608171816F
:10173000828193810C5F1F4FA5010E94240CC82E4B
:10174000CA183D2CE89437F867CF6081718190E02A
:1017500080E00E5F1F4FF0CF42FC02C0839478CF31
:101760008394839475CF842D867809F471CFF6CF56
:10177000B70180E290E00E94F40B83948214C0F3DE
:10178000512C73CF522C5818821408F46ECFF8CF16
:10179000842D867809F47BCF8BE241FE80E247FC02
:1017A0008DE2B70190E071CFB70180E390E00E9435
:1017B000F40B9A946CCF8FEF9FEF99CFFC010590BB
:1017C000615070400110D8F7809590958E0F9F1F43
:1017D0000895FC016150704001900110D8F7809588
:1017E00090958E0F9F1F08950F931F93CF93DF93B4
:1017F000182F092FEB018B8181FD09C01FEF0FEF1F
:10180000812F902FDF91CF911F910F91089582FF2B
:1018100014C02E813F818C819D81281739073CF4AB
:10182000E881F981CF0101969983888310838E81A5
:101830009F8101969F838E83E3CFE885F985812F71
:101840000995892BA1F3DACFFA01AA27283051F1A3
:10185000203181F1E8946F936E7F6E5F7F4F8F4FE1
:101860009F4FAF4FB1E03ED0B4E03CD0670F781F40
:10187000891F9A1FA11D680F791F8A1F911DA11D25
:101880006A0F711D811D911DA11D20D009F468945E
:101890003F912AE0269F11243019305D3193DEF606
:1018A000CF010895462F4770405D4193B3E00FD0BC
:1018B000C9F7F6CF462F4F70405D4A3318F0495DA7
:1018C00031FD4052419302D0A9F7EACFB4E0A6958A
:1018D0009795879577956795BA95C9F700976105AC
:1018E000710508959B01AC010A2E06945795479502
:1018F00037952795BA95C9F7620F731F841F951FF7
:10190000A01D08952F923F924F925F926F927F9207
:101910008F929F92AF92BF92CF92DF92EF92FF92FF
:101920000F931F93CF93DF93CDB7DEB7CA1BDB0BAB
:101930000FB6F894DEBF0FBECDBF09942A88398850
:1019400048885F846E847D848C849B84AA84B98457
:10195000C884DF80EE80FD800C811B81AA81B98163
:10196000CE0FD11D0FB6F894DEBF0FBECDBFED0177
:061970000895F894FFCF7A
:10197600000000000000005F0000000700070014E0
:101986007F147F14242A7F2A12231308646236499F
:101996005522500005030000001C22410000412290
:1019A6001C0014083E081408083E080800503000C1
:1019B60000080808080800606000002010080402FB
:1019C6003E5149453E00427F400042615149462111
:1019D60041454B311814127F1027454545393C4A7D
:1019E60049493001710905033649494936064949CD
:1019F600291E003636000000563600000814224123
:101A0600001414141414004122140802015109068A
:101A1600324979413E7E1111117E7F494949363E50
:101A2600414141227F4141221C7F494949417F0969
:101A36000909013E4149497A7F0808087F00417F2C
:101A460041002040413F017F081422417F40404031
:101A5600407F020C027F7F0408107F3E4141413ED9
:101A66007F090909063E4151215E7F09192946462B
:101A76004949493101017F01013F4040403F1F2054
:101A860040201F3F4038403F631408146307087026
:101A960008076151494543007F414100020408108F
:101AA600200041417F0004020102044040404040C2
:101AB600000102040020545454787F4844443838C6
:101AC60044444420384444487F3854545418087ECB
:101AD6000901020C5252523E7F0804047800447DEC
:101AE60040002040443D007F1028440000417F40D4
:101AF600007C041804787C0804047838444444388C
:101B06007C14141408081414187C7C08040408486F
:101B160054545420043F4440203C4040207C1C2028
:101B260040201C3C4030403C44281028440C505077
:101B3600503C4464544C44000836410000007F0089
:101B4600000041360800100808100878464146781B
:101B560039003600330030003B00380035003200D3
:101B66003A00370034003100256400256C640046D5
:101B760072657175656E63793A00487A00447574CA
:101B860079204379636C653A00250054696D653A9E
:081B9600007573005F007C0084
:00000001FF
